:100000000C942A000C9434000C9434000C943400AA
:100010000C9434000C9434000C9434000C94340090
:100020000C9434000C9434000C9434000C94340080
:100030000C9434000C9434000C9434000C94340070
:100040000C9434000C9434000C9434000C94340060
:100050000C94340011241FBECFE5D4E0DEBFCDBF29
:100060000E9436000C9451000C9400008FEF87BB67
:10007000C89B15C088BB2FE936E891E0215030407D
:100080009040E1F700C0000018BA2FE936E891E08F
:10009000215030409040E1F700C00000E9CF18BA8D
:0600A000E7CFF894FFCF4A
:00000001FF
